{
  "contractName": "ProjectContract",
  "abi": [
    {
      "constant": true,
      "inputs": [],
      "name": "obligationsAmount",
      "outputs": [
        {
          "name": "",
          "type": "uint256"
        }
      ],
      "payable": false,
      "stateMutability": "view",
      "type": "function"
    },
    {
      "constant": true,
      "inputs": [],
      "name": "paidAmount",
      "outputs": [
        {
          "name": "",
          "type": "uint256"
        }
      ],
      "payable": false,
      "stateMutability": "view",
      "type": "function"
    },
    {
      "constant": true,
      "inputs": [],
      "name": "projectId",
      "outputs": [
        {
          "name": "",
          "type": "uint256"
        }
      ],
      "payable": false,
      "stateMutability": "view",
      "type": "function"
    },
    {
      "constant": false,
      "inputs": [],
      "name": "refund",
      "outputs": [
        {
          "name": "",
          "type": "bool"
        }
      ],
      "payable": false,
      "stateMutability": "nonpayable",
      "type": "function"
    },
    {
      "constant": true,
      "inputs": [],
      "name": "tokenAddr",
      "outputs": [
        {
          "name": "",
          "type": "address"
        }
      ],
      "payable": false,
      "stateMutability": "view",
      "type": "function"
    },
    {
      "constant": true,
      "inputs": [],
      "name": "deadlineAwardPercent",
      "outputs": [
        {
          "name": "",
          "type": "uint256"
        }
      ],
      "payable": false,
      "stateMutability": "view",
      "type": "function"
    },
    {
      "constant": true,
      "inputs": [],
      "name": "owner",
      "outputs": [
        {
          "name": "",
          "type": "address"
        }
      ],
      "payable": false,
      "stateMutability": "view",
      "type": "function"
    },
    {
      "constant": true,
      "inputs": [],
      "name": "authorId",
      "outputs": [
        {
          "name": "",
          "type": "uint256"
        }
      ],
      "payable": false,
      "stateMutability": "view",
      "type": "function"
    },
    {
      "constant": false,
      "inputs": [
        {
          "name": "taskId",
          "type": "uint256"
        },
        {
          "name": "deadlineTimestamp",
          "type": "uint256"
        },
        {
          "name": "amount",
          "type": "uint256"
        }
      ],
      "name": "registerObligation",
      "outputs": [
        {
          "name": "",
          "type": "bool"
        }
      ],
      "payable": false,
      "stateMutability": "nonpayable",
      "type": "function"
    },
    {
      "constant": true,
      "inputs": [
        {
          "name": "",
          "type": "uint256"
        }
      ],
      "name": "obligations",
      "outputs": [
        {
          "name": "taskId",
          "type": "uint256"
        },
        {
          "name": "amount",
          "type": "uint256"
        },
        {
          "name": "createdAt",
          "type": "uint256"
        },
        {
          "name": "deadlineTimestamp",
          "type": "uint256"
        }
      ],
      "payable": false,
      "stateMutability": "view",
      "type": "function"
    },
    {
      "constant": true,
      "inputs": [],
      "name": "deadlinePenaltyPercent",
      "outputs": [
        {
          "name": "",
          "type": "uint256"
        }
      ],
      "payable": false,
      "stateMutability": "view",
      "type": "function"
    },
    {
      "constant": true,
      "inputs": [],
      "name": "projectBalance",
      "outputs": [
        {
          "name": "",
          "type": "uint256"
        }
      ],
      "payable": false,
      "stateMutability": "view",
      "type": "function"
    },
    {
      "constant": true,
      "inputs": [],
      "name": "payerAddr",
      "outputs": [
        {
          "name": "",
          "type": "address"
        }
      ],
      "payable": false,
      "stateMutability": "view",
      "type": "function"
    },
    {
      "constant": true,
      "inputs": [
        {
          "name": "",
          "type": "uint256"
        }
      ],
      "name": "paidTasks",
      "outputs": [
        {
          "name": "",
          "type": "address"
        }
      ],
      "payable": false,
      "stateMutability": "view",
      "type": "function"
    },
    {
      "constant": false,
      "inputs": [
        {
          "name": "beneficiary",
          "type": "address"
        },
        {
          "name": "userId",
          "type": "uint256"
        },
        {
          "name": "taskId",
          "type": "uint256"
        }
      ],
      "name": "payForTask",
      "outputs": [
        {
          "name": "",
          "type": "bool"
        }
      ],
      "payable": false,
      "stateMutability": "nonpayable",
      "type": "function"
    },
    {
      "constant": false,
      "inputs": [
        {
          "name": "newOwner",
          "type": "address"
        }
      ],
      "name": "transferOwnership",
      "outputs": [],
      "payable": false,
      "stateMutability": "nonpayable",
      "type": "function"
    },
    {
      "constant": true,
      "inputs": [],
      "name": "token",
      "outputs": [
        {
          "name": "",
          "type": "address"
        }
      ],
      "payable": false,
      "stateMutability": "view",
      "type": "function"
    },
    {
      "inputs": [
        {
          "name": "_token",
          "type": "address"
        },
        {
          "name": "_payer",
          "type": "address"
        },
        {
          "name": "_projectId",
          "type": "uint256"
        },
        {
          "name": "_authorId",
          "type": "uint256"
        },
        {
          "name": "_deadlineAwardPercent",
          "type": "uint256"
        },
        {
          "name": "_deadlinePenaltyPercent",
          "type": "uint256"
        }
      ],
      "payable": false,
      "stateMutability": "nonpayable",
      "type": "constructor"
    },
    {
      "anonymous": false,
      "inputs": [
        {
          "indexed": false,
          "name": "beneficiary",
          "type": "address"
        },
        {
          "indexed": false,
          "name": "amount",
          "type": "uint256"
        },
        {
          "indexed": false,
          "name": "userId",
          "type": "uint256"
        },
        {
          "indexed": false,
          "name": "taskId",
          "type": "uint256"
        }
      ],
      "name": "TaskPaid",
      "type": "event"
    }
  ],
  "bytecode": "0x6060604052341561000f57600080fd5b60405160c08061109683398101604052808051906020019091908051906020019091908051906020019091908051906020019091908051906020019091908051906020019091905050336000806101000a81548173ffffffffffffffffffffffffffffffffffffffff021916908373ffffffffffffffffffffffffffffffffffffffff16021790555085600160006101000a81548173ffffffffffffffffffffffffffffffffffffffff021916908373ffffffffffffffffffffffffffffffffffffffff16021790555084600260006101000a81548173ffffffffffffffffffffffffffffffffffffffff021916908373ffffffffffffffffffffffffffffffffffffffff1602179055508360038190555082600481905550816005819055508060068190555085600960006101000a81548173ffffffffffffffffffffffffffffffffffffffff021916908373ffffffffffffffffffffffffffffffffffffffff160217905550505050505050610f0a8061018c6000396000f3006060604052600436106100f1576000357c0100000000000000000000000000000000000000000000000000000000900463ffffffff1680630bc3d2b7146100f657806312fa769f1461011f5780633fafa12714610148578063590e1ae3146101715780635fbe4d1d1461019e57806379fbf240146101f35780638da5cb5b1461021c5780639460916e14610271578063a908687e1461029a578063c5b00e76146102e7578063d693520d14610333578063d840fd061461035c578063dcc7094a14610385578063e76e9aaf146103da578063efc1ac1e1461043d578063f2fde38b146104a0578063fc0c546a146104d9575b600080fd5b341561010157600080fd5b61010961052e565b6040518082815260200191505060405180910390f35b341561012a57600080fd5b610132610534565b6040518082815260200191505060405180910390f35b341561015357600080fd5b61015b61053a565b6040518082815260200191505060405180910390f35b341561017c57600080fd5b610184610540565b604051808215151515815260200191505060405180910390f35b34156101a957600080fd5b6101b16106cb565b604051808273ffffffffffffffffffffffffffffffffffffffff1673ffffffffffffffffffffffffffffffffffffffff16815260200191505060405180910390f35b34156101fe57600080fd5b6102066106f1565b6040518082815260200191505060405180910390f35b341561022757600080fd5b61022f6106f7565b604051808273ffffffffffffffffffffffffffffffffffffffff1673ffffffffffffffffffffffffffffffffffffffff16815260200191505060405180910390f35b341561027c57600080fd5b61028461071c565b6040518082815260200191505060405180910390f35b34156102a557600080fd5b6102cd6004808035906020019091908035906020019091908035906020019091905050610722565b604051808215151515815260200191505060405180910390f35b34156102f257600080fd5b610308600480803590602001909190505061082a565b6040518085815260200184815260200183815260200182815260200194505050505060405180910390f35b341561033e57600080fd5b61034661085a565b6040518082815260200191505060405180910390f35b341561036757600080fd5b61036f610860565b6040518082815260200191505060405180910390f35b341561039057600080fd5b610398610947565b604051808273ffffffffffffffffffffffffffffffffffffffff1673ffffffffffffffffffffffffffffffffffffffff16815260200191505060405180910390f35b34156103e557600080fd5b6103fb600480803590602001909190505061096d565b604051808273ffffffffffffffffffffffffffffffffffffffff1673ffffffffffffffffffffffffffffffffffffffff16815260200191505060405180910390f35b341561044857600080fd5b610486600480803573ffffffffffffffffffffffffffffffffffffffff169060200190919080359060200190919080359060200190919050506109a0565b604051808215151515815260200191505060405180910390f35b34156104ab57600080fd5b6104d7600480803573ffffffffffffffffffffffffffffffffffffffff16906020019091905050610ca0565b005b34156104e457600080fd5b6104ec610d75565b604051808273ffffffffffffffffffffffffffffffffffffffff1673ffffffffffffffffffffffffffffffffffffffff16815260200191505060405180910390f35b60075481565b60085481565b60035481565b6000806000809054906101000a900473ffffffffffffffffffffffffffffffffffffffff1673ffffffffffffffffffffffffffffffffffffffff163373ffffffffffffffffffffffffffffffffffffffff1614151561059e57600080fd5b6105a6610860565b905060008111156106c257600960009054906101000a900473ffffffffffffffffffffffffffffffffffffffff1673ffffffffffffffffffffffffffffffffffffffff1663a9059cbb600260009054906101000a900473ffffffffffffffffffffffffffffffffffffffff16836000604051602001526040518363ffffffff167c0100000000000000000000000000000000000000000000000000000000028152600401808373ffffffffffffffffffffffffffffffffffffffff1673ffffffffffffffffffffffffffffffffffffffff16815260200182815260200192505050602060405180830381600087803b15156106a057600080fd5b6102c65a03f115156106b157600080fd5b5050506040518051905091506106c7565b600091505b5090565b600160009054906101000a900473ffffffffffffffffffffffffffffffffffffffff1681565b60055481565b6000809054906101000a900473ffffffffffffffffffffffffffffffffffffffff1681565b60045481565b60008060009054906101000a900473ffffffffffffffffffffffffffffffffffffffff1673ffffffffffffffffffffffffffffffffffffffff163373ffffffffffffffffffffffffffffffffffffffff1614151561077f57600080fd5b6000600a6000868152602001908152602001600020600201541415156107a457600080fd5b60806040519081016040528085815260200183815260200142815260200184815250600a60008681526020019081526020016000206000820151816000015560208201518160010155604082015181600201556060820151816003015590505061081982600754610d9b90919063ffffffff16565b600781905550600190509392505050565b600a6020528060005260406000206000915090508060000154908060010154908060020154908060030154905084565b60065481565b6000600960009054906101000a900473ffffffffffffffffffffffffffffffffffffffff1673ffffffffffffffffffffffffffffffffffffffff166370a08231306000604051602001526040518263ffffffff167c0100000000000000000000000000000000000000000000000000000000028152600401808273ffffffffffffffffffffffffffffffffffffffff1673ffffffffffffffffffffffffffffffffffffffff168152602001915050602060405180830381600087803b151561092757600080fd5b6102c65a03f1151561093857600080fd5b50505060405180519050905090565b600260009054906101000a900473ffffffffffffffffffffffffffffffffffffffff1681565b600b6020528060005260406000206000915054906101000a900473ffffffffffffffffffffffffffffffffffffffff1681565b60008060008060009054906101000a900473ffffffffffffffffffffffffffffffffffffffff1673ffffffffffffffffffffffffffffffffffffffff163373ffffffffffffffffffffffffffffffffffffffff16141515610a0057600080fd5b600a600085815260200190815260200160002091506000826002015414151515610a2957600080fd5b6000600b600086815260200190815260200160002060009054906101000a900473ffffffffffffffffffffffffffffffffffffffff1673ffffffffffffffffffffffffffffffffffffffff16141515610a8157600080fd5b610a9382600101548360030154610db9565b9050600960009054906101000a900473ffffffffffffffffffffffffffffffffffffffff1673ffffffffffffffffffffffffffffffffffffffff1663a9059cbb87836000604051602001526040518363ffffffff167c0100000000000000000000000000000000000000000000000000000000028152600401808373ffffffffffffffffffffffffffffffffffffffff1673ffffffffffffffffffffffffffffffffffffffff16815260200182815260200192505050602060405180830381600087803b1515610b6257600080fd5b6102c65a03f11515610b7357600080fd5b5050506040518051905015610c925785600b600086815260200190815260200160002060006101000a81548173ffffffffffffffffffffffffffffffffffffffff021916908373ffffffffffffffffffffffffffffffffffffffff160217905550610bed8260010154600754610e7790919063ffffffff16565b600781905550610c0881600854610d9b90919063ffffffff16565b6008819055507f69914159a8c17cce20f2bd2234cf52983988517e8f3c32b652446bef4daa279c86828787604051808573ffffffffffffffffffffffffffffffffffffffff1673ffffffffffffffffffffffffffffffffffffffff16815260200184815260200183815260200182815260200194505050505060405180910390a160019250610c97565b600092505b50509392505050565b6000809054906101000a900473ffffffffffffffffffffffffffffffffffffffff1673ffffffffffffffffffffffffffffffffffffffff163373ffffffffffffffffffffffffffffffffffffffff16141515610cfb57600080fd5b600073ffffffffffffffffffffffffffffffffffffffff168173ffffffffffffffffffffffffffffffffffffffff16141515610d7257806000806101000a81548173ffffffffffffffffffffffffffffffffffffffff021916908373ffffffffffffffffffffffffffffffffffffffff1602179055505b50565b600960009054906101000a900473ffffffffffffffffffffffffffffffffffffffff1681565b6000808284019050838110151515610daf57fe5b8091505092915050565b600080600083421015610e0a57610dee600554610de0606488610e9090919063ffffffff16565b610eab90919063ffffffff16565b9150610e038286610d9b90919063ffffffff16565b9250610e6f565b610e206201518085610d9b90919063ffffffff16565b421115610e6b57610e4f600654610e41606488610e9090919063ffffffff16565b610eab90919063ffffffff16565b9050610e648186610e7790919063ffffffff16565b9250610e6f565b8492505b505092915050565b6000828211151515610e8557fe5b818303905092915050565b6000808284811515610e9e57fe5b0490508091505092915050565b60008082840290506000841480610ecc5750828482811515610ec957fe5b04145b1515610ed457fe5b80915050929150505600a165627a7a72305820981c9d4fb818868e5859cf24977946b60049b1286004cb267d3f63638ed49ddb0029",
  "source": "pragma solidity ^0.4.17;\n\ncontract Token {\n    function balanceOf(address _owner) public view returns (uint);\n    function transfer(address _to, uint _value) public returns (bool);\n}\n\n/**\n * @title SafeMath\n * @dev Math operations with safety checks that throw on error\n */\nlibrary SafeMath {\n    function mul(uint a, uint b) internal pure returns (uint) {\n        uint c = a * b;\n        assert(a == 0 || c / a == b);\n        return c;\n    }\n\n    function div(uint a, uint b) internal pure returns (uint) {\n        // assert(b > 0); // Solidity automatically throws when dividing by 0\n        uint c = a / b;\n        // assert(a == b * c + a % b); // There is no case in which this doesn't hold\n        return c;\n    }\n\n    function sub(uint a, uint b) internal pure returns (uint) {\n        assert(b <= a);\n        return a - b;\n    }\n\n    function add(uint a, uint b) internal pure returns (uint) {\n        uint c = a + b;\n        assert(c >= a);\n        return c;\n    }\n}\n\n/**\n * @title Ownable\n * @dev The Ownable contract has an owner address, and provides basic authorization control\n * functions, this simplifies the implementation of \"user permissions\".\n */\ncontract Ownable {\n    address public owner;\n\n\n    /**\n     * @dev The Ownable constructor sets the original `owner` of the contract to the sender\n     * account.\n     */\n    function Ownable() {\n        owner = msg.sender;\n    }\n\n\n    /**\n     * @dev Throws if called by any account other than the owner.\n     */\n    modifier onlyOwner() {\n        require(msg.sender == owner);\n        _;\n    }\n\n\n    /**\n     * @dev Allows the current owner to transfer control of the contract to a newOwner.\n     * @param newOwner The address to transfer ownership to.\n     */\n    function transferOwnership(address newOwner) public onlyOwner {\n        if (newOwner != address(0)) {\n            owner = newOwner;\n        }\n    }\n\n}\n\ncontract ProjectContract is Ownable {\n    using SafeMath for uint;\n    \n    address public tokenAddr;\n    address public payerAddr;\n\n    uint public  projectId;\n    uint public  authorId;\n    uint public  deadlineAwardPercent;\n    uint public  deadlinePenaltyPercent;\n    uint public  obligationsAmount;\n    uint public  paidAmount;\n\n    uint constant deadlinePenaltyPeriod = 60 * 60 * 24; // 1 day\n\n    Token public  token;\n\n    struct TaskObligation {\n        uint taskId;\n        uint amount;\n        uint createdAt;\n        uint deadlineTimestamp;\n    }\n\n    mapping (uint => TaskObligation) public obligations;\n    mapping (uint => address) public paidTasks;\n\n    event TaskPaid(address beneficiary, uint amount, uint userId, uint taskId);\n\n    function ProjectContract(\n        address _token,\n        address _payer,\n        uint _projectId,\n        uint _authorId,\n        uint _deadlineAwardPercent,\n        uint _deadlinePenaltyPercent\n    ) {\n        tokenAddr = _token;\n        payerAddr = _payer;\n        projectId = _projectId;\n        authorId = _authorId;\n        deadlineAwardPercent = _deadlineAwardPercent;\n        deadlinePenaltyPercent = _deadlinePenaltyPercent;\n        token = Token(_token);\n    }\n\n    function registerObligation(uint taskId, uint deadlineTimestamp, uint amount) public onlyOwner returns (bool) {\n        require(obligations[taskId].createdAt == 0);\n        obligations[taskId] = TaskObligation({\n            amount: amount,\n            taskId: taskId,\n            deadlineTimestamp: deadlineTimestamp,\n            createdAt: now\n        });\n        obligationsAmount = obligationsAmount.add(amount);\n        return true;\n    }\n\n    function projectBalance() public view returns (uint) {\n        return token.balanceOf(this);\n    }\n\n    function refund() public onlyOwner returns (bool) {\n        var amount = projectBalance();\n        if(amount > 0) {\n            return token.transfer(payerAddr, amount);\n        }\n        return false;\n    }\n\n    function payForTask(address beneficiary, uint userId, uint taskId) public onlyOwner returns (bool) {\n        var obligation = obligations[taskId];\n        require(obligation.createdAt != 0);\n        require(paidTasks[taskId] == 0);\n\n        var amount = obligationReward(obligation.amount, obligation.deadlineTimestamp);\n\n        if(token.transfer(beneficiary, amount)) {\n            paidTasks[taskId] = beneficiary;\n            obligationsAmount = obligationsAmount.sub(obligation.amount);\n            paidAmount = paidAmount.add(amount);\n            TaskPaid(beneficiary, amount, userId, taskId);\n            return true;\n         } else {\n            return false;\n         }\n    }\n\n    function obligationReward(uint amount, uint deadlineTimestamp) private view returns (uint) {\n        if(now < deadlineTimestamp) {\n            var award = amount.div(100).mul(deadlineAwardPercent);\n            return amount.add(award);\n        }\n        if(now > deadlineTimestamp.add(deadlinePenaltyPeriod)) {\n            var penalty = amount.div(100).mul(deadlinePenaltyPercent);\n            return amount.sub(penalty);\n        }\n        return amount;\n    }\n}\n",
  "sourcePath": "/Users/elvir/rails_projects/iq300_token/contracts/ProjectContract.sol",
  "compiler": {
    "name": "solc",
    "version": "0.4.18+commit.9cf6e910.Emscripten.clang"
  },
  "schemaVersion": "1.0.1",
  "updatedAt": "2017-11-29T12:48:19.687Z"
}