{
  "contractName": "TempusPreIco",
  "abi": [
    {
      "constant": false,
      "inputs": [
        {
          "name": "seller",
          "type": "address"
        },
        {
          "name": "isSeller",
          "type": "bool"
        }
      ],
      "name": "setAsSeller",
      "outputs": [],
      "payable": false,
      "stateMutability": "nonpayable",
      "type": "function"
    },
    {
      "constant": false,
      "inputs": [
        {
          "name": "isPaused",
          "type": "bool"
        }
      ],
      "name": "setPaused",
      "outputs": [],
      "payable": false,
      "stateMutability": "nonpayable",
      "type": "function"
    },
    {
      "constant": true,
      "inputs": [],
      "name": "isActive",
      "outputs": [
        {
          "name": "active",
          "type": "bool"
        }
      ],
      "payable": false,
      "stateMutability": "view",
      "type": "function"
    },
    {
      "constant": false,
      "inputs": [
        {
          "name": "beneficiary",
          "type": "address"
        },
        {
          "name": "amount",
          "type": "uint256"
        }
      ],
      "name": "externalPurchase",
      "outputs": [],
      "payable": false,
      "stateMutability": "nonpayable",
      "type": "function"
    },
    {
      "constant": true,
      "inputs": [],
      "name": "endTime",
      "outputs": [
        {
          "name": "",
          "type": "uint256"
        }
      ],
      "payable": false,
      "stateMutability": "view",
      "type": "function"
    },
    {
      "constant": false,
      "inputs": [
        {
          "name": "amount",
          "type": "uint256"
        }
      ],
      "name": "withdrawEther",
      "outputs": [],
      "payable": false,
      "stateMutability": "nonpayable",
      "type": "function"
    },
    {
      "constant": false,
      "inputs": [
        {
          "name": "_startTime",
          "type": "uint256"
        }
      ],
      "name": "setStartTime",
      "outputs": [],
      "payable": false,
      "stateMutability": "nonpayable",
      "type": "function"
    },
    {
      "constant": true,
      "inputs": [],
      "name": "tokensSold",
      "outputs": [
        {
          "name": "",
          "type": "uint256"
        }
      ],
      "payable": false,
      "stateMutability": "view",
      "type": "function"
    },
    {
      "constant": true,
      "inputs": [],
      "name": "paused",
      "outputs": [
        {
          "name": "",
          "type": "bool"
        }
      ],
      "payable": false,
      "stateMutability": "view",
      "type": "function"
    },
    {
      "constant": true,
      "inputs": [
        {
          "name": "",
          "type": "address"
        }
      ],
      "name": "sellers",
      "outputs": [
        {
          "name": "",
          "type": "bool"
        }
      ],
      "payable": false,
      "stateMutability": "view",
      "type": "function"
    },
    {
      "constant": false,
      "inputs": [
        {
          "name": "beneficiary",
          "type": "address"
        }
      ],
      "name": "buyFor",
      "outputs": [],
      "payable": true,
      "stateMutability": "payable",
      "type": "function"
    },
    {
      "constant": true,
      "inputs": [],
      "name": "startTime",
      "outputs": [
        {
          "name": "",
          "type": "uint256"
        }
      ],
      "payable": false,
      "stateMutability": "view",
      "type": "function"
    },
    {
      "constant": true,
      "inputs": [],
      "name": "owner",
      "outputs": [
        {
          "name": "",
          "type": "address"
        }
      ],
      "payable": false,
      "stateMutability": "view",
      "type": "function"
    },
    {
      "constant": true,
      "inputs": [],
      "name": "price",
      "outputs": [
        {
          "name": "",
          "type": "uint256"
        }
      ],
      "payable": false,
      "stateMutability": "view",
      "type": "function"
    },
    {
      "constant": false,
      "inputs": [
        {
          "name": "_endTime",
          "type": "uint256"
        }
      ],
      "name": "setEndTime",
      "outputs": [],
      "payable": false,
      "stateMutability": "nonpayable",
      "type": "function"
    },
    {
      "constant": false,
      "inputs": [
        {
          "name": "newOwner",
          "type": "address"
        }
      ],
      "name": "transferOwnership",
      "outputs": [],
      "payable": false,
      "stateMutability": "nonpayable",
      "type": "function"
    },
    {
      "constant": true,
      "inputs": [],
      "name": "hardCap",
      "outputs": [
        {
          "name": "",
          "type": "uint256"
        }
      ],
      "payable": false,
      "stateMutability": "view",
      "type": "function"
    },
    {
      "inputs": [
        {
          "name": "tokenAddress",
          "type": "address"
        },
        {
          "name": "_withdrawAddress1",
          "type": "address"
        },
        {
          "name": "_withdrawAddress2",
          "type": "address"
        }
      ],
      "payable": false,
      "stateMutability": "nonpayable",
      "type": "constructor"
    },
    {
      "payable": true,
      "stateMutability": "payable",
      "type": "fallback"
    },
    {
      "anonymous": false,
      "inputs": [
        {
          "indexed": true,
          "name": "previousOwner",
          "type": "address"
        },
        {
          "indexed": true,
          "name": "newOwner",
          "type": "address"
        }
      ],
      "name": "OwnershipTransferred",
      "type": "event"
    }
  ],
  "bytecode": "0x6060604052635a211a10600155635a74289060025565048c27395000600355633b9aca0060045560006005556000600660006101000a81548160ff021916908315150217905550341561005157600080fd5b604051606080610dde83398101604052808051906020019091908051906020019091908051906020019091905050336000806101000a81548173ffffffffffffffffffffffffffffffffffffffff021916908373ffffffffffffffffffffffffffffffffffffffff16021790555082600860006101000a81548173ffffffffffffffffffffffffffffffffffffffff021916908373ffffffffffffffffffffffffffffffffffffffff16021790555081600660016101000a81548173ffffffffffffffffffffffffffffffffffffffff021916908373ffffffffffffffffffffffffffffffffffffffff16021790555080600760006101000a81548173ffffffffffffffffffffffffffffffffffffffff021916908373ffffffffffffffffffffffffffffffffffffffff160217905550505050610c4a806101946000396000f3006060604052600436106100f1576000357c0100000000000000000000000000000000000000000000000000000000900463ffffffff16806303440022146100fc57806316c38b3c1461014057806322f3e2d414610165578063313f944f146101925780633197cbb6146101d45780633bed33ce146101fd5780633e0a322d14610220578063518ab2a8146102435780635c975abb1461026c5780636d47ab72146102995780636f0b5180146102ea57806378e97925146103185780638da5cb5b14610341578063a035b1fe14610396578063ccb98ffc146103bf578063f2fde38b146103e2578063fb86a4041461041b575b6100fa33610444565b005b341561010757600080fd5b61013e600480803573ffffffffffffffffffffffffffffffffffffffff169060200190919080351515906020019091905050610480565b005b341561014b57600080fd5b61016360048080351515906020019091905050610536565b005b341561017057600080fd5b6101786105ae565b604051808215151515815260200191505060405180910390f35b341561019d57600080fd5b6101d2600480803573ffffffffffffffffffffffffffffffffffffffff169060200190919080359060200190919050506105fc565b005b34156101df57600080fd5b6101e7610662565b6040518082815260200191505060405180910390f35b341561020857600080fd5b61021e6004808035906020019091905050610668565b005b341561022b57600080fd5b61024160048080359060200190919050506107a2565b005b341561024e57600080fd5b610256610807565b6040518082815260200191505060405180910390f35b341561027757600080fd5b61027f61080d565b604051808215151515815260200191505060405180910390f35b34156102a457600080fd5b6102d0600480803573ffffffffffffffffffffffffffffffffffffffff16906020019091905050610820565b604051808215151515815260200191505060405180910390f35b610316600480803573ffffffffffffffffffffffffffffffffffffffff16906020019091905050610444565b005b341561032357600080fd5b61032b610840565b6040518082815260200191505060405180910390f35b341561034c57600080fd5b610354610846565b604051808273ffffffffffffffffffffffffffffffffffffffff1673ffffffffffffffffffffffffffffffffffffffff16815260200191505060405180910390f35b34156103a157600080fd5b6103a961086b565b6040518082815260200191505060405180910390f35b34156103ca57600080fd5b6103e06004808035906020019091905050610871565b005b34156103ed57600080fd5b610419600480803573ffffffffffffffffffffffffffffffffffffffff169060200190919050506108d6565b005b341561042657600080fd5b61042e610a2b565b6040518082815260200191505060405180910390f35b6000806000341415151561045757600080fd5b34915061046f60035483610a3190919063ffffffff16565b905061047b8382610a4c565b505050565b6000809054906101000a900473ffffffffffffffffffffffffffffffffffffffff1673ffffffffffffffffffffffffffffffffffffffff163373ffffffffffffffffffffffffffffffffffffffff161415156104db57600080fd5b80600960008473ffffffffffffffffffffffffffffffffffffffff1673ffffffffffffffffffffffffffffffffffffffff16815260200190815260200160002060006101000a81548160ff0219169083151502179055505050565b6000809054906101000a900473ffffffffffffffffffffffffffffffffffffffff1673ffffffffffffffffffffffffffffffffffffffff163373ffffffffffffffffffffffffffffffffffffffff1614151561059157600080fd5b80600660006101000a81548160ff02191690831515021790555050565b600080600060015442101580156105c757506002544211155b91506004546005541090508080156105dc5750815b80156105f55750600660009054906101000a900460ff16155b9250505090565b600960003373ffffffffffffffffffffffffffffffffffffffff1673ffffffffffffffffffffffffffffffffffffffff16815260200190815260200160002060009054906101000a900460ff16151561065457600080fd5b61065e8282610a4c565b5050565b60025481565b6000809054906101000a900473ffffffffffffffffffffffffffffffffffffffff1673ffffffffffffffffffffffffffffffffffffffff163373ffffffffffffffffffffffffffffffffffffffff161415156106c357600080fd5b600660019054906101000a900473ffffffffffffffffffffffffffffffffffffffff1673ffffffffffffffffffffffffffffffffffffffff166108fc60028381151561070b57fe5b049081150290604051600060405180830381858888f19350505050151561073157600080fd5b600760009054906101000a900473ffffffffffffffffffffffffffffffffffffffff1673ffffffffffffffffffffffffffffffffffffffff166108fc60028381151561077957fe5b049081150290604051600060405180830381858888f19350505050151561079f57600080fd5b50565b6000809054906101000a900473ffffffffffffffffffffffffffffffffffffffff1673ffffffffffffffffffffffffffffffffffffffff163373ffffffffffffffffffffffffffffffffffffffff161415156107fd57600080fd5b8060018190555050565b60055481565b600660009054906101000a900460ff1681565b60096020528060005260406000206000915054906101000a900460ff1681565b60015481565b6000809054906101000a900473ffffffffffffffffffffffffffffffffffffffff1681565b60035481565b6000809054906101000a900473ffffffffffffffffffffffffffffffffffffffff1673ffffffffffffffffffffffffffffffffffffffff163373ffffffffffffffffffffffffffffffffffffffff161415156108cc57600080fd5b8060028190555050565b6000809054906101000a900473ffffffffffffffffffffffffffffffffffffffff1673ffffffffffffffffffffffffffffffffffffffff163373ffffffffffffffffffffffffffffffffffffffff1614151561093157600080fd5b600073ffffffffffffffffffffffffffffffffffffffff168173ffffffffffffffffffffffffffffffffffffffff161415151561096d57600080fd5b8073ffffffffffffffffffffffffffffffffffffffff166000809054906101000a900473ffffffffffffffffffffffffffffffffffffffff1673ffffffffffffffffffffffffffffffffffffffff167f8be0079c531659141344cd1fd0a4f28419497f9722a3daafe3b4186f6b6457e060405160405180910390a3806000806101000a81548173ffffffffffffffffffffffffffffffffffffffff021916908373ffffffffffffffffffffffffffffffffffffffff16021790555050565b60045481565b6000808284811515610a3f57fe5b0490508091505092915050565b6000808373ffffffffffffffffffffffffffffffffffffffff1614151515610a7357600080fd5b610a7b6105ae565b1515610a8657600080fd5b614e209050610aa081600454610be790919063ffffffff16565b6005541015610ab957808210151515610ab857600080fd5b5b600454610ad160055484610c0090919063ffffffff16565b11151515610ade57600080fd5b610af382600554610c0090919063ffffffff16565b600581905550600860009054906101000a900473ffffffffffffffffffffffffffffffffffffffff1673ffffffffffffffffffffffffffffffffffffffff166340c10f1984846000604051602001526040518363ffffffff167c0100000000000000000000000000000000000000000000000000000000028152600401808373ffffffffffffffffffffffffffffffffffffffff1673ffffffffffffffffffffffffffffffffffffffff16815260200182815260200192505050602060405180830381600087803b1515610bc657600080fd5b6102c65a03f11515610bd757600080fd5b5050506040518051905050505050565b6000828211151515610bf557fe5b818303905092915050565b6000808284019050838110151515610c1457fe5b80915050929150505600a165627a7a723058209a6ff32d466b7bf4199f7df8ee27829cb3c942b7d08d3fc0c520fb24731a181e0029",
  "source": "pragma solidity ^0.4.18;\n\n/**\n * @title Ownable\n * @dev The Ownable contract has an owner address, and provides basic authorization control\n * functions, this simplifies the implementation of \"user permissions\".\n */\ncontract Ownable {\n    address public owner;\n\n\n    event OwnershipTransferred(address indexed previousOwner, address indexed newOwner);\n\n\n    /**\n     * @dev The Ownable constructor sets the original `owner` of the contract to the sender\n     * account.\n     */\n    function Ownable() public {\n        owner = msg.sender;\n    }\n\n\n    /**\n     * @dev Throws if called by any account other than the owner.\n     */\n    modifier onlyOwner() {\n        require(msg.sender == owner);\n        _;\n    }\n\n\n    /**\n     * @dev Allows the current owner to transfer control of the contract to a newOwner.\n     * @param newOwner The address to transfer ownership to.\n     */\n    function transferOwnership(address newOwner) onlyOwner public {\n        require(newOwner != address(0));\n        OwnershipTransferred(owner, newOwner);\n        owner = newOwner;\n    }\n\n}\n\n/**\n * @title SafeMath\n * @dev Math operations with safety checks that throw on error\n */\nlibrary SafeMath {\n    function mul(uint256 a, uint256 b) internal pure returns (uint256) {\n        uint256 c = a * b;\n        assert(a == 0 || c / a == b);\n        return c;\n    }\n\n    function div(uint256 a, uint256 b) internal pure returns (uint256) {\n        // assert(b > 0); // Solidity automatically throws when dividing by 0\n        uint256 c = a / b;\n        // assert(a == b * c + a % b); // There is no case in which this doesn't hold\n        return c;\n    }\n\n    function sub(uint256 a, uint256 b) internal pure returns (uint256) {\n        assert(b <= a);\n        return a - b;\n    }\n\n    function add(uint256 a, uint256 b) internal pure returns (uint256) {\n        uint256 c = a + b;\n        assert(c >= a);\n        return c;\n    }\n}\n\n\ncontract TempusToken {\n\n    function mint(address receiver, uint256 amount) public returns (bool success);\n\n}\n\ncontract TempusPreIco is Ownable {\n    using SafeMath for uint256;\n\n    // start and end timestamps where investments are allowed (both inclusive)\n    uint public startTime = 1512118800; //1 December 2017 09:00:00 GMT\n    uint public endTime = 1517562000; //2 February 2018 09:00:00 GMT\n\n    //token price\n    uint public price = 0.005 ether / 1000;\n\n    //max tokens could be sold during preico\n    uint public hardCap = 1000000000;\n    uint public tokensSold = 0;\n\n    bool public paused = false;\n\n    address withdrawAddress1;\n    address withdrawAddress2;\n\n    TempusToken token;\n\n    mapping(address => bool) public sellers;\n\n    modifier onlySellers() {\n        require(sellers[msg.sender]);\n        _;\n    }\n\n    function TempusPreIco (address tokenAddress, address _withdrawAddress1,\n    address _withdrawAddress2) public {\n        token = TempusToken(tokenAddress);\n        withdrawAddress1 = _withdrawAddress1;\n        withdrawAddress2 = _withdrawAddress2;\n    }\n\n    /**\n    * @dev Function that indicates whether pre ico is active or not\n    */\n    function isActive() public view returns (bool active) {\n        bool withinPeriod = now >= startTime && now <= endTime;\n        bool capIsNotMet = tokensSold < hardCap;\n        return capIsNotMet && withinPeriod && !paused;\n    }\n\n    function() external payable {\n        buyFor(msg.sender);\n    }\n\n    /**\n    * @dev Low-level purchase function. Purchases tokens for specified address\n    * @param beneficiary Address that will get tokens\n    */\n    function buyFor(address beneficiary) public payable {\n        require(msg.value != 0);\n        uint amount = msg.value;\n        uint tokenAmount = amount.div(price);\n        makePurchase(beneficiary, tokenAmount);\n    }\n\n    /**\n    * @dev Function that is called by our robot to allow users\n    * to buy tonkens for various cryptos.\n    * @param beneficiary An address that will get tokens\n    * @param amount Amount of tokens that address will get\n    */\n    function externalPurchase(address beneficiary, uint amount) external onlySellers {\n        makePurchase(beneficiary, amount);\n    }\n\n    function makePurchase(address beneficiary, uint amount) private {\n        require(beneficiary != 0x0);\n        require(isActive());\n        uint minimumTokens = 20000;\n        if(tokensSold < hardCap.sub(minimumTokens)) {\n            require(amount >= minimumTokens);\n        }\n        require(amount.add(tokensSold) <= hardCap);\n        tokensSold = tokensSold.add(amount);\n        token.mint(beneficiary, amount);\n    }\n\n    function setPaused(bool isPaused) external onlyOwner {\n        paused = isPaused;\n    }\n\n    /**\n    * @dev Sets address of seller robot\n    * @param seller Address of seller robot to set\n    * @param isSeller Parameter whether set as seller or not\n    */\n    function setAsSeller(address seller, bool isSeller) external onlyOwner {\n        sellers[seller] = isSeller;\n    }\n\n    /**\n    * @dev Set start time of Pre ICO\n    * @param _startTime Start of Pre ICO (unix time)\n    */\n    function setStartTime(uint _startTime) external onlyOwner {\n        startTime = _startTime;\n    }\n\n    /**\n    * @dev Sets end time of Pre ICO\n    * @param _endTime End time of Pre ICO (unit time)\n    */\n    function setEndTime(uint _endTime) external onlyOwner {\n        endTime = _endTime;\n    }\n\n    /**\n    * @dev Function to get ether from contract\n    * @param amount Amount in wei to withdraw\n    */\n    function withdrawEther(uint amount) external onlyOwner {\n        withdrawAddress1.transfer(amount / 2);\n        withdrawAddress2.transfer(amount / 2);\n    }\n\n}",
  "sourcePath": "/Users/elvir/rails_projects/iq300_token/contracts/TempusPreIco.sol",
  "compiler": {
    "name": "solc",
    "version": "0.4.18+commit.9cf6e910.Emscripten.clang"
  },
  "schemaVersion": "1.0.1",
  "updatedAt": "2017-11-29T12:48:19.707Z"
}