{
  "contractName": "TempusIco",
  "abi": [
    {
      "constant": false,
      "inputs": [
        {
          "name": "seller",
          "type": "address"
        },
        {
          "name": "isSeller",
          "type": "bool"
        }
      ],
      "name": "setAsSeller",
      "outputs": [],
      "payable": false,
      "stateMutability": "nonpayable",
      "type": "function"
    },
    {
      "constant": true,
      "inputs": [],
      "name": "period3End",
      "outputs": [
        {
          "name": "",
          "type": "uint256"
        }
      ],
      "payable": false,
      "stateMutability": "view",
      "type": "function"
    },
    {
      "constant": true,
      "inputs": [],
      "name": "period2End",
      "outputs": [
        {
          "name": "",
          "type": "uint256"
        }
      ],
      "payable": false,
      "stateMutability": "view",
      "type": "function"
    },
    {
      "constant": true,
      "inputs": [
        {
          "name": "",
          "type": "uint256"
        }
      ],
      "name": "tokensSoldInPeriod",
      "outputs": [
        {
          "name": "",
          "type": "uint256"
        }
      ],
      "payable": false,
      "stateMutability": "view",
      "type": "function"
    },
    {
      "constant": false,
      "inputs": [
        {
          "name": "isPaused",
          "type": "bool"
        }
      ],
      "name": "setPaused",
      "outputs": [],
      "payable": false,
      "stateMutability": "nonpayable",
      "type": "function"
    },
    {
      "constant": true,
      "inputs": [],
      "name": "isActive",
      "outputs": [
        {
          "name": "active",
          "type": "bool"
        }
      ],
      "payable": false,
      "stateMutability": "view",
      "type": "function"
    },
    {
      "constant": true,
      "inputs": [],
      "name": "price4",
      "outputs": [
        {
          "name": "",
          "type": "uint256"
        }
      ],
      "payable": false,
      "stateMutability": "view",
      "type": "function"
    },
    {
      "constant": true,
      "inputs": [],
      "name": "price2",
      "outputs": [
        {
          "name": "",
          "type": "uint256"
        }
      ],
      "payable": false,
      "stateMutability": "view",
      "type": "function"
    },
    {
      "constant": true,
      "inputs": [],
      "name": "periodByDate",
      "outputs": [
        {
          "name": "periodNum",
          "type": "uint256"
        }
      ],
      "payable": false,
      "stateMutability": "view",
      "type": "function"
    },
    {
      "constant": false,
      "inputs": [
        {
          "name": "beneficiary",
          "type": "address"
        },
        {
          "name": "amount",
          "type": "uint256"
        }
      ],
      "name": "externalPurchase",
      "outputs": [],
      "payable": false,
      "stateMutability": "nonpayable",
      "type": "function"
    },
    {
      "constant": true,
      "inputs": [],
      "name": "period1End",
      "outputs": [
        {
          "name": "",
          "type": "uint256"
        }
      ],
      "payable": false,
      "stateMutability": "view",
      "type": "function"
    },
    {
      "constant": false,
      "inputs": [
        {
          "name": "amount",
          "type": "uint256"
        }
      ],
      "name": "withdrawEther",
      "outputs": [],
      "payable": false,
      "stateMutability": "nonpayable",
      "type": "function"
    },
    {
      "constant": false,
      "inputs": [
        {
          "name": "_startTime",
          "type": "uint256"
        }
      ],
      "name": "setStartTime",
      "outputs": [],
      "payable": false,
      "stateMutability": "nonpayable",
      "type": "function"
    },
    {
      "constant": true,
      "inputs": [],
      "name": "tokensSold",
      "outputs": [
        {
          "name": "",
          "type": "uint256"
        }
      ],
      "payable": false,
      "stateMutability": "view",
      "type": "function"
    },
    {
      "constant": true,
      "inputs": [],
      "name": "paused",
      "outputs": [
        {
          "name": "",
          "type": "bool"
        }
      ],
      "payable": false,
      "stateMutability": "view",
      "type": "function"
    },
    {
      "constant": true,
      "inputs": [],
      "name": "price1",
      "outputs": [
        {
          "name": "",
          "type": "uint256"
        }
      ],
      "payable": false,
      "stateMutability": "view",
      "type": "function"
    },
    {
      "constant": true,
      "inputs": [
        {
          "name": "",
          "type": "address"
        }
      ],
      "name": "sellers",
      "outputs": [
        {
          "name": "",
          "type": "bool"
        }
      ],
      "payable": false,
      "stateMutability": "view",
      "type": "function"
    },
    {
      "constant": false,
      "inputs": [
        {
          "name": "beneficiary",
          "type": "address"
        }
      ],
      "name": "buyFor",
      "outputs": [],
      "payable": true,
      "stateMutability": "payable",
      "type": "function"
    },
    {
      "constant": true,
      "inputs": [],
      "name": "startTime",
      "outputs": [
        {
          "name": "",
          "type": "uint256"
        }
      ],
      "payable": false,
      "stateMutability": "view",
      "type": "function"
    },
    {
      "constant": true,
      "inputs": [],
      "name": "owner",
      "outputs": [
        {
          "name": "",
          "type": "address"
        }
      ],
      "payable": false,
      "stateMutability": "view",
      "type": "function"
    },
    {
      "constant": true,
      "inputs": [],
      "name": "price0",
      "outputs": [
        {
          "name": "",
          "type": "uint256"
        }
      ],
      "payable": false,
      "stateMutability": "view",
      "type": "function"
    },
    {
      "constant": true,
      "inputs": [],
      "name": "period0End",
      "outputs": [
        {
          "name": "",
          "type": "uint256"
        }
      ],
      "payable": false,
      "stateMutability": "view",
      "type": "function"
    },
    {
      "constant": true,
      "inputs": [],
      "name": "periodDuration",
      "outputs": [
        {
          "name": "",
          "type": "uint256"
        }
      ],
      "payable": false,
      "stateMutability": "view",
      "type": "function"
    },
    {
      "constant": true,
      "inputs": [],
      "name": "priceByPeriod",
      "outputs": [
        {
          "name": "price",
          "type": "uint256"
        }
      ],
      "payable": false,
      "stateMutability": "view",
      "type": "function"
    },
    {
      "constant": true,
      "inputs": [],
      "name": "price3",
      "outputs": [
        {
          "name": "",
          "type": "uint256"
        }
      ],
      "payable": false,
      "stateMutability": "view",
      "type": "function"
    },
    {
      "constant": true,
      "inputs": [],
      "name": "hardCap",
      "outputs": [
        {
          "name": "",
          "type": "uint256"
        }
      ],
      "payable": false,
      "stateMutability": "view",
      "type": "function"
    },
    {
      "inputs": [
        {
          "name": "tokenAddress",
          "type": "address"
        },
        {
          "name": "_withdrawAddress1",
          "type": "address"
        },
        {
          "name": "_withdrawAddress2",
          "type": "address"
        }
      ],
      "payable": false,
      "stateMutability": "nonpayable",
      "type": "constructor"
    },
    {
      "payable": true,
      "stateMutability": "payable",
      "type": "fallback"
    },
    {
      "anonymous": false,
      "inputs": [
        {
          "indexed": true,
          "name": "previousOwner",
          "type": "address"
        },
        {
          "indexed": true,
          "name": "newOwner",
          "type": "address"
        }
      ],
      "name": "OwnershipTransferred",
      "type": "event"
    },
    {
      "constant": false,
      "inputs": [
        {
          "name": "newOwner",
          "type": "address"
        }
      ],
      "name": "transferOwnership",
      "outputs": [],
      "payable": false,
      "stateMutability": "nonpayable",
      "type": "function"
    }
  ],
  "bytecode": "0x6060604052635a97c11060015565048c27395000600255600280540260035560026003540260045560026004540260055560026005540260065564e8d4a51000600755600060085562278d00600e55600e5460015401600f55600e54600f5401601055600e5460105401601155600e54601154016012556000601360006101000a81548160ff021916908315150217905550341561009c57600080fd5b60405160608061124083398101604052808051906020019091908051906020019091908051906020019091905050336000806101000a81548173ffffffffffffffffffffffffffffffffffffffff021916908373ffffffffffffffffffffffffffffffffffffffff16021790555082601560006101000a81548173ffffffffffffffffffffffffffffffffffffffff021916908373ffffffffffffffffffffffffffffffffffffffff16021790555081601360016101000a81548173ffffffffffffffffffffffffffffffffffffffff021916908373ffffffffffffffffffffffffffffffffffffffff16021790555080601460006101000a81548173ffffffffffffffffffffffffffffffffffffffff021916908373ffffffffffffffffffffffffffffffffffffffff160217905550505050611061806101df6000396000f30060606040526004361061015f576000357c0100000000000000000000000000000000000000000000000000000000900463ffffffff168063034400221461016a5780631016774e146101ae57806311844aae146101d7578063147b3aea1461020057806316c38b3c1461023757806322f3e2d41461025c578063273786841461028957806327a3181d146102b25780632e0b1834146102db578063313f944f1461030457806332363b47146103465780633bed33ce1461036f5780633e0a322d14610392578063518ab2a8146103b55780635c975abb146103de5780636caf25ce1461040b5780636d47ab72146104345780636f0b51801461048557806378e97925146104b35780638da5cb5b146104dc578063a0a986f114610531578063add7690b1461055a578063b470aade14610583578063baa6ab81146105ac578063d778c911146105d5578063f2fde38b146105fe578063fb86a40414610637575b61016833610660565b005b341561017557600080fd5b6101ac600480803573ffffffffffffffffffffffffffffffffffffffff1690602001909190803515159060200190919050506106bd565b005b34156101b957600080fd5b6101c1610773565b6040518082815260200191505060405180910390f35b34156101e257600080fd5b6101ea610779565b6040518082815260200191505060405180910390f35b341561020b57600080fd5b610221600480803590602001909190505061077f565b6040518082815260200191505060405180910390f35b341561024257600080fd5b61025a60048080351515906020019091905050610799565b005b341561026757600080fd5b61026f610811565b604051808215151515815260200191505060405180910390f35b341561029457600080fd5b61029c610851565b6040518082815260200191505060405180910390f35b34156102bd57600080fd5b6102c5610857565b6040518082815260200191505060405180910390f35b34156102e657600080fd5b6102ee61085d565b6040518082815260200191505060405180910390f35b341561030f57600080fd5b610344600480803573ffffffffffffffffffffffffffffffffffffffff169060200190919080359060200190919050506108b3565b005b341561035157600080fd5b610359610919565b6040518082815260200191505060405180910390f35b341561037a57600080fd5b610390600480803590602001909190505061091f565b005b341561039d57600080fd5b6103b36004808035906020019091905050610a59565b005b34156103c057600080fd5b6103c8610abe565b6040518082815260200191505060405180910390f35b34156103e957600080fd5b6103f1610ac4565b604051808215151515815260200191505060405180910390f35b341561041657600080fd5b61041e610ad7565b6040518082815260200191505060405180910390f35b341561043f57600080fd5b61046b600480803573ffffffffffffffffffffffffffffffffffffffff16906020019091905050610add565b604051808215151515815260200191505060405180910390f35b6104b1600480803573ffffffffffffffffffffffffffffffffffffffff16906020019091905050610660565b005b34156104be57600080fd5b6104c6610afd565b6040518082815260200191505060405180910390f35b34156104e757600080fd5b6104ef610b03565b604051808273ffffffffffffffffffffffffffffffffffffffff1673ffffffffffffffffffffffffffffffffffffffff16815260200191505060405180910390f35b341561053c57600080fd5b610544610b28565b6040518082815260200191505060405180910390f35b341561056557600080fd5b61056d610b2e565b6040518082815260200191505060405180910390f35b341561058e57600080fd5b610596610b34565b6040518082815260200191505060405180910390f35b34156105b757600080fd5b6105bf610b3a565b6040518082815260200191505060405180910390f35b34156105e057600080fd5b6105e8610b9d565b6040518082815260200191505060405180910390f35b341561060957600080fd5b610635600480803573ffffffffffffffffffffffffffffffffffffffff16906020019091905050610ba3565b005b341561064257600080fd5b61064a610cf8565b6040518082815260200191505060405180910390f35b600080600080341415151561067457600080fd5b34925067016345785d8a0000831015151561068e57600080fd5b610696610b3a565b91506106ab8284610cfe90919063ffffffff16565b90506106b78482610d19565b50505050565b6000809054906101000a900473ffffffffffffffffffffffffffffffffffffffff1673ffffffffffffffffffffffffffffffffffffffff163373ffffffffffffffffffffffffffffffffffffffff1614151561071857600080fd5b80601660008473ffffffffffffffffffffffffffffffffffffffff1673ffffffffffffffffffffffffffffffffffffffff16815260200190815260200160002060006101000a81548160ff0219169083151502179055505050565b60125481565b60115481565b60098160058110151561078e57fe5b016000915090505481565b6000809054906101000a900473ffffffffffffffffffffffffffffffffffffffff1673ffffffffffffffffffffffffffffffffffffffff163373ffffffffffffffffffffffffffffffffffffffff161415156107f457600080fd5b80601360006101000a81548160ff02191690831515021790555050565b600080600060015442101591506007546008541090508080156108315750815b801561084a5750601360009054906101000a900460ff16155b9250505090565b60065481565b60045481565b6000600f5442101561087257600090506108b0565b60105442101561088557600190506108b0565b60115442101561089857600290506108b0565b6012544210156108ab57600390506108b0565b600490505b90565b601660003373ffffffffffffffffffffffffffffffffffffffff1673ffffffffffffffffffffffffffffffffffffffff16815260200190815260200160002060009054906101000a900460ff16151561090b57600080fd5b6109158282610d19565b5050565b60105481565b6000809054906101000a900473ffffffffffffffffffffffffffffffffffffffff1673ffffffffffffffffffffffffffffffffffffffff163373ffffffffffffffffffffffffffffffffffffffff1614151561097a57600080fd5b601360019054906101000a900473ffffffffffffffffffffffffffffffffffffffff1673ffffffffffffffffffffffffffffffffffffffff166108fc6002838115156109c257fe5b049081150290604051600060405180830381858888f1935050505015156109e857600080fd5b601460009054906101000a900473ffffffffffffffffffffffffffffffffffffffff1673ffffffffffffffffffffffffffffffffffffffff166108fc600283811515610a3057fe5b049081150290604051600060405180830381858888f193505050501515610a5657600080fd5b50565b6000809054906101000a900473ffffffffffffffffffffffffffffffffffffffff1673ffffffffffffffffffffffffffffffffffffffff163373ffffffffffffffffffffffffffffffffffffffff16141515610ab457600080fd5b8060018190555050565b60085481565b601360009054906101000a900460ff1681565b60035481565b60166020528060005260406000206000915054906101000a900460ff1681565b60015481565b6000809054906101000a900473ffffffffffffffffffffffffffffffffffffffff1681565b60025481565b600f5481565b600e5481565b600080610b4561085d565b90506000811415610b5a576002549150610b99565b6001811415610b6d576003549150610b99565b6002811415610b80576004549150610b99565b6003811415610b93576005549150610b99565b60065491505b5090565b60055481565b6000809054906101000a900473ffffffffffffffffffffffffffffffffffffffff1673ffffffffffffffffffffffffffffffffffffffff163373ffffffffffffffffffffffffffffffffffffffff16141515610bfe57600080fd5b600073ffffffffffffffffffffffffffffffffffffffff168173ffffffffffffffffffffffffffffffffffffffff1614151515610c3a57600080fd5b8073ffffffffffffffffffffffffffffffffffffffff166000809054906101000a900473ffffffffffffffffffffffffffffffffffffffff1673ffffffffffffffffffffffffffffffffffffffff167f8be0079c531659141344cd1fd0a4f28419497f9722a3daafe3b4186f6b6457e060405160405180910390a3806000806101000a81548173ffffffffffffffffffffffffffffffffffffffff021916908373ffffffffffffffffffffffffffffffffffffffff16021790555050565b60075481565b6000808284811515610d0c57fe5b0490508091505092915050565b6000808373ffffffffffffffffffffffffffffffffffffffff1614151515610d4057600080fd5b610d48610811565b1515610d5357600080fd5b6103e89050610d6d81600754610ebd90919063ffffffff16565b6008541015610d8657808210151515610d8557600080fd5b5b600754610d9e60085484610ed690919063ffffffff16565b11151515610dab57600080fd5b610dc082600854610ed690919063ffffffff16565b600881905550601560009054906101000a900473ffffffffffffffffffffffffffffffffffffffff1673ffffffffffffffffffffffffffffffffffffffff166340c10f1984846000604051602001526040518363ffffffff167c0100000000000000000000000000000000000000000000000000000000028152600401808373ffffffffffffffffffffffffffffffffffffffff1673ffffffffffffffffffffffffffffffffffffffff16815260200182815260200192505050602060405180830381600087803b1515610e9357600080fd5b6102c65a03f11515610ea457600080fd5b5050506040518051905050610eb882610ef4565b505050565b6000828211151515610ecb57fe5b818303905092915050565b6000808284019050838110151515610eea57fe5b8091505092915050565b6000806000610f0161085d565b925083600984600581101515610f1357fe5b015401600984600581101515610f2557fe5b01819055506005831415610f3857610f89565b600983600581101515610f4757fe5b015460085460075403019150816064600985600581101515610f6557fe5b015402811515610f7157fe5b049050601481101515610f8857610f8783610f8f565b5b5b50505050565b6000811415610fcb5742600f81905550600e54600f5401601081905550600e5460105401601181905550600e5460115401601281905550611032565b6001811415610ffa5742601081905550600e5460105401601181905550600e5460115401601281905550611032565b600281141561101c5742601181905550600e5460115401601281905550611032565b60038114156110315742601281905550611032565b5b505600a165627a7a72305820f2c93118d999d4ccd1d297c37759b0120db1a6cb64fd13f5d5b7f7064133963e0029",
  "source": "pragma solidity ^0.4.18;\n\n/**\n * @title Ownable\n * @dev The Ownable contract has an owner address, and provides basic authorization control\n * functions, this simplifies the implementation of \"user permissions\".\n */\ncontract Ownable {\n    address public owner;\n\n\n    event OwnershipTransferred(address indexed previousOwner, address indexed newOwner);\n\n\n    /**\n     * @dev The Ownable constructor sets the original `owner` of the contract to the sender\n     * account.\n     */\n    function Ownable() public {\n        owner = msg.sender;\n    }\n\n\n    /**\n     * @dev Throws if called by any account other than the owner.\n     */\n    modifier onlyOwner() {\n        require(msg.sender == owner);\n        _;\n    }\n\n\n    /**\n     * @dev Allows the current owner to transfer control of the contract to a newOwner.\n     * @param newOwner The address to transfer ownership to.\n     */\n    function transferOwnership(address newOwner) onlyOwner public {\n        require(newOwner != address(0));\n        OwnershipTransferred(owner, newOwner);\n        owner = newOwner;\n    }\n\n}\n\n/**\n * @title SafeMath\n * @dev Math operations with safety checks that throw on error\n */\nlibrary SafeMath {\n    function mul(uint256 a, uint256 b) internal pure returns (uint256) {\n        uint256 c = a * b;\n        assert(a == 0 || c / a == b);\n        return c;\n    }\n\n    function div(uint256 a, uint256 b) internal pure returns (uint256) {\n        // assert(b > 0); // Solidity automatically throws when dividing by 0\n        uint256 c = a / b;\n        // assert(a == b * c + a % b); // There is no case in which this doesn't hold\n        return c;\n    }\n\n    function sub(uint256 a, uint256 b) internal pure returns (uint256) {\n        assert(b <= a);\n        return a - b;\n    }\n\n    function add(uint256 a, uint256 b) internal pure returns (uint256) {\n        uint256 c = a + b;\n        assert(c >= a);\n        return c;\n    }\n}\n\n\ncontract TempusToken {\n\n    function mint(address receiver, uint256 amount) public returns (bool success);\n\n}\n\ncontract TempusIco is Ownable {\n    using SafeMath for uint256;\n\n    uint public startTime = 1519894800; //1 March 2018 09:00:00 GMT\n\n    //initial token price\n    uint public price0 = 0.005 ether / 1000;\n    uint public price1 = price0 * 2;\n    uint public price2 = price1 * 2;\n    uint public price3 = price2 * 2;\n    uint public price4 = price3 * 2;\n\n    //max tokens could be sold during ico\n    uint public hardCap = 1000000000 * 1000;\n    uint public tokensSold = 0;\n    uint[5] public tokensSoldInPeriod;\n\n    uint public periodDuration = 30 days;\n\n    uint public period0End = startTime + periodDuration;\n    uint public period1End = period0End + periodDuration;\n    uint public period2End = period1End + periodDuration;\n    uint public period3End = period2End + periodDuration;\n\n    bool public paused = false;\n\n    address withdrawAddress1;\n    address withdrawAddress2;\n\n    TempusToken token;\n\n    mapping(address => bool) public sellers;\n\n    modifier onlySellers() {\n        require(sellers[msg.sender]);\n        _;\n    }\n\n    function TempusIco (address tokenAddress, address _withdrawAddress1,\n    address _withdrawAddress2) public {\n        token = TempusToken(tokenAddress);\n        withdrawAddress1 = _withdrawAddress1;\n        withdrawAddress2 = _withdrawAddress2;\n    }\n\n    function periodByDate() public view returns (uint periodNum) {\n        if(now < period0End) {\n            return 0;\n        }\n        if(now < period1End) {\n            return 1;\n        }\n        if(now < period2End) {\n            return 2;\n        }\n        if(now < period3End) {\n            return 3;\n        }\n        return 4;\n    }\n\n    function priceByPeriod() public view returns (uint price) {\n        uint periodNum = periodByDate();\n        if(periodNum == 0) {\n            return price0;\n        }\n        if(periodNum == 1) {\n            return price1;\n        }\n        if(periodNum == 2) {\n            return price2;\n        }\n        if(periodNum == 3) {\n            return price3;\n        }\n        return price4;\n    }\n\n    /**\n    * @dev Function that indicates whether pre ico is active or not\n    */\n    function isActive() public view returns (bool active) {\n        bool withinPeriod = now >= startTime;\n        bool capIsNotMet = tokensSold < hardCap;\n        return capIsNotMet && withinPeriod && !paused;\n    }\n\n    function() external payable {\n        buyFor(msg.sender);\n    }\n\n    /**\n    * @dev Low-level purchase function. Purchases tokens for specified address\n    * @param beneficiary Address that will get tokens\n    */\n    function buyFor(address beneficiary) public payable {\n        require(msg.value != 0);\n        uint amount = msg.value;\n        require(amount >= 0.1 ether);\n        uint price = priceByPeriod();\n        uint tokenAmount = amount.div(price);\n        makePurchase(beneficiary, tokenAmount);\n    }\n\n    /**\n    * @dev Function that is called by our robot to allow users\n    * to buy tonkens for various cryptos.\n    * @param beneficiary An address that will get tokens\n    * @param amount Amount of tokens that address will get\n    */\n    function externalPurchase(address beneficiary, uint amount) external onlySellers {\n        makePurchase(beneficiary, amount);\n    }\n\n    function makePurchase(address beneficiary, uint amount) private {\n        require(beneficiary != 0x0);\n        require(isActive());\n        uint minimumTokens = 1000;\n        if(tokensSold < hardCap.sub(minimumTokens)) {\n            require(amount >= minimumTokens);\n        }\n        require(amount.add(tokensSold) <= hardCap);\n        tokensSold = tokensSold.add(amount);\n        token.mint(beneficiary, amount);\n        updatePeriodStat(amount);\n    }\n\n    function updatePeriodStat(uint amount) private {\n        uint periodNum = periodByDate();\n        tokensSoldInPeriod[periodNum] = tokensSoldInPeriod[periodNum] + amount;\n        if(periodNum == 5) {\n            return;\n        }\n        uint amountOnStart = hardCap - tokensSold + tokensSoldInPeriod[periodNum];\n        uint percentSold = (tokensSoldInPeriod[periodNum] * 100) / amountOnStart;\n        if(percentSold >= 20) {\n            resetPeriodDates(periodNum);\n        }\n    }\n\n    function resetPeriodDates(uint periodNum) private {\n        if(periodNum == 0) {\n            period0End = now;\n            period1End = period0End + periodDuration;\n            period2End = period1End + periodDuration;\n            period3End = period2End + periodDuration;\n            return;\n        }\n        if(periodNum == 1) {\n            period1End = now;\n            period2End = period1End + periodDuration;\n            period3End = period2End + periodDuration;\n            return;\n        }\n        if(periodNum == 2) {\n            period2End = now;\n            period3End = period2End + periodDuration;\n            return;\n        }\n        if(periodNum == 3) {\n            period3End = now;\n            return;\n        }\n    }\n\n    function setPaused(bool isPaused) external onlyOwner {\n        paused = isPaused;\n    }\n\n    /**\n    * @dev Sets address of seller robot\n    * @param seller Address of seller robot to set\n    * @param isSeller Parameter whether set as seller or not\n    */\n    function setAsSeller(address seller, bool isSeller) external onlyOwner {\n        sellers[seller] = isSeller;\n    }\n\n    /**\n    * @dev Set start time of ICO\n    * @param _startTime Start of ICO (unix time)\n    */\n    function setStartTime(uint _startTime) external onlyOwner {\n        startTime = _startTime;\n    }\n\n    /**\n    * @dev Function to get ether from contract\n    * @param amount Amount in wei to withdraw\n    */\n    function withdrawEther(uint amount) external onlyOwner {\n        withdrawAddress1.transfer(amount / 2);\n        withdrawAddress2.transfer(amount / 2);\n    }\n}\n",
  "sourcePath": "/Users/elvir/rails_projects/iq300_token/contracts/TempusIco.sol",
  "compiler": {
    "name": "solc",
    "version": "0.4.19+commit.c4cbbb05.Emscripten.clang"
  },
  "schemaVersion": "2.0.0",
  "updatedAt": "2018-03-01T07:36:22.838Z"
}